<!DOCTYPE html>
<html>
  <head>
    <meta charset="utf-8">
    <meta http-equiv="X-UA-Compatible" content="IE=edge,chrome=1">
    <meta name="viewport" content="width=device-width, initial-scale=1">
    <link rel="shortcut icon" href="/static/img/favicon.ico" />
    <title>마스터링 비트코인 ch3 - 달상자 Blog</title>
    <meta name="author" content="TAEHOON" />
    <meta name="description" content="마스터링 비트코인 ch3" />
    <meta name="keywords" content="마스터링 비트코인 ch3, 달상자 Blog, all, bitcoin, 마스터링 비트코인" />
    <link rel="alternate" type="application/rss+xml" title="RSS" href="/feed.xml">
    <meta content="100002479598118" property="fb:app_id">
    <meta content="달상자 Blog" property="og:site_name">

    

    
      <meta content="마스터링 비트코인 ch3" property="og:title">
      <meta content="article" property="og:type">
    

    
      <meta content="공부하려고 만든 블로그" property="og:description">
    

    
      <meta content="http://localhost:4000/all/bitcoin/%EB%A7%88%EC%8A%A4%ED%84%B0%EB%A7%81%20%EB%B9%84%ED%8A%B8%EC%BD%94%EC%9D%B8/2022/02/23/bitcoinbook_ch3.html" property="og:url">
    

    
      <meta content="2022-02-23T15:00:00+09:00" property="article:published_time">
      <meta content="http://localhost:4000/about/" property="article:author">
    

    

    
      
        <meta content="all" property="article:section">
      
    

    
      
    

    <meta name="twitter:card" content="summary">
    <meta name="twitter:site" content="@">
    <meta name="twitter:creator" content="@">

    
      <meta name="twitter:title" content="마스터링 비트코인 ch3">
    

    
      <meta name="twitter:url" content="http://localhost:4000/all/bitcoin/%EB%A7%88%EC%8A%A4%ED%84%B0%EB%A7%81%20%EB%B9%84%ED%8A%B8%EC%BD%94%EC%9D%B8/2022/02/23/bitcoinbook_ch3.html">
    

    
      <meta name="twitter:description" content="공부하려고 만든 블로그">
    

    

    <!-- Font awesome icons -->
    <link href="/static/css/font-awesome.min.css" rel="stylesheet" integrity="sha384-T8Gy5hrqNKT+hzMclPo118YTQO6cYprQmhrYwIiQ/3axmI1hQomh7Ud2hPOy8SP1" crossorigin="anonymous">
    <!-- syntax highlighting CSS -->
    <link rel="stylesheet" href="/static/css/syntax.css">
    <!-- Bootstrap core CSS -->
    <link href="/static/css/bootstrap.min.css" rel="stylesheet">
    <!-- Fonts -->
    <link href="https://fonts.googleapis.com/css?family=Roboto+Condensed:400,300italic,300,400italic,700&amp;subset=latin,latin-ext" rel="stylesheet" type="text/css">
    <!-- Custom CSS -->
    <link rel="stylesheet" href="/static/css/super-search.css">
    <link rel="stylesheet" href="/static/css/thickbox.css">
    <link rel="stylesheet" href="/static/css/projects.css">
    <link rel="stylesheet" href="/static/css/main.css">

    
  </head>
  <body>
    <div class="container">
      <div class="col-sm-3">
        <div class="fixed-condition">
          <h1 class="author-name"><a href="/">TAEHOON</a></h1>
          
            <div class="profile-about">
              개발용 공부를 위해 만든 블로그 입니다. 백엔드를 주로 개발하며 프론트, DevOps, 앱, BlockChain 등도 같이 개발하고 있습니다.
            </div>
          
          <div class="social">
            <ul>
              
                <li><a href="https://www.facebook.com/people/%EB%AC%B8%ED%83%9C%ED%9B%88/100002479598118/" target="_blank"><i class="fa fa-facebook"></i></a></li>
              
                <li><a href="https://www.instagram.com/moon_developer_93" target="_blank"><i class="fa fa-instagram"></i></a></li>
              
                <li><a href="https://github.com/hanscom95" target="_blank"><i class="fa fa-github"></i></a></li>
              
            </ul>
          </div>
          <div class="search" id="js-search">
            <input type="text" placeholder="(sitemap)~$ type to search" class="search__input form-control" id="js-search__input">
            <ul class="search__results" id="js-search__results"></ul>
          </div>
          <hr />
          <ul class="sidebar-nav">
            <strong>Navigation</strong>
            <li><a href="/">Home</a></li>
            
              <li><a class="about" href="/category/all">Category</a></li>
            
              <li><a class="about" href="/projects/">Project</a></li>
            
              <li><a class="about" href="https://hanscom95.github.io/about">About Me</a></li>
            
          </ul>
        </div>
        <!-- end /.fixed-condition -->
      </div>
      <div class="col-sm-8 col-offset-1 main-layout">
        <header class="post-header">
  <h1 class="post-title">마스터링 비트코인 ch3</h1>
</header>

<span class="time">23 Feb 2022</span>

  <span class="categories">
    &raquo; <a href="/category/all">all</a>, <a href="/category/bitcoin">bitcoin</a>, <a href="/category/마스터링 비트코인">마스터링 비트코인</a>
  </span>


<div class="content">
  <div class="post"><h1 id="마스터링-비트코인-ch3-비트코인-코어참조구현개발환경-세팅">마스터링 비트코인 ch3 비트코인 코어:참조구현(개발환경 세팅)</h1>
<p>비트코인 코어 3장 개발환경 세팅<br />
풀 인덱스 노드 설정</p>

<p><strong>개발환경</strong><br />
docker 20.10.8 / Ubuntu 20.04 / BitcoinCore v22.0 / HDD 4tb / RAM 32GB</p>

<hr />
<div class="language-plaintext highlighter-rouge"><div class="highlight"><pre class="highlight"><code>$ apt-get update
$ apt-get upgrade
$ apt-get install git
$ git clone https://github.com/bitcoin/bitcoin.git
$ git checkout v22.0
$ git status
$ apt-get install build-essential libtool autotools-dev automake pkg-config bsdmainutils python3
$ apt-get install libevent-dev libboost-dev
$ apt-get install libdb4.8-dev libdb4.8++-dev
$ apt-get install libqrencode-dev autoconf openssl libssl-dev libevent-dev
$ apt install libsqlite3-dev
$ apt install libminiupnpc-dev libnatpmp-dev
$ apt install systemtap-sdt-dev

$ ./autogen.sh
$ ./configure BDB_LIBS="/home/ubuntu/bitcoin/db4/lib -ldb_cxx-4.8" BDB_CFLAGS="/home/ubuntu/bitcoin/db4/include" --without-gui -prefix=/home/ubuntu/bitcoin/
$ ./contrib/install_db4.sh `pwd`
$ make
$ make install

$ bitcoind -datadir=/home/ubuntu/bitcoin/data -daemon
$ bitcoind -printconsole
$ chmod 766 -R ./data
</code></pre></div></div>

<p><strong>설치가 성공적으로 끝나면 API테스트</strong></p>
<div class="language-plaintext highlighter-rouge"><div class="highlight"><pre class="highlight"><code>$ bitcoin-cli getblockchaininfo
{
    "version": 150000, 
    "subversion": "/Satoshi:0.15.0/", 
    "protocolversion": 70015, 
    "localservices": "000000000000000d", 
    "localrelay": true, 
    "timeoffset": 0, 
    "networkactive": true, 
    "connections": 8, 
    "networks": [ 
    ... 
    detailed information about all networks (ipv4, ipv6 or onion) 
    ... 
    ], 
    "relayfee": 0.00001000, 
    "incrementalfee": 0.00001000, 
    "localaddresses": [ 
    ], 
    "warnings": "”
}

$ bitcoin-cli getblockhash 1000
00000000c937983704a73af28acdec37b049d214adbda81d7e2a3dd146f6ed09

$ bitcoin-cli getrawtransaction 7957a35fe64f80d234d76d83a2a8f1a0d8149a41d81de548f0a65a8a999f6f18
0100000001524d288f25cada331c298e21995ad070e1d1a0793e818f2f7cfb5f6122ef3e71000000008c493046022100a59e516883459706ac2e6ed6a97ef9788942d3c96a0108f2699fa48d9a5725d1022100f9bb4434943e87901c0c96b5f3af4e7ba7b83e12c69b1edbfe6965f933fcd17d014104e5a0b4de6c09bd9d3f730ce56ff42657da3a7ec4798c0ace2459fb007236bc3249f70170509ed663da0300023a5de700998bfec49d4da4c66288a58374626c8dffffffff0180969800000000001976a9147f9b1a7fb68d60c536c2fd8aeaa53a8f3cc025a888ac00000000

$ bitcoin-cli decoderawtransaction 0100000001524d288f25cada331c298e21995ad070e1d1a0793e818f2f7cfb5f6122ef3e71000000008c493046022100a59e516883459706ac2e6ed6a97ef9788942d3c96a0108f2699fa48d9a5725d1022100f9bb4434943e87901c0c96b5f3af4e7ba7b83e12c69b1edbfe6965f933fcd17d014104e5a0b4de6c09bd9d3f730ce56ff42657da3a7ec4798c0ace2459fb007236bc3249f70170509ed663da0300023a5de700998bfec49d4da4c66288a58374626c8dffffffff0180969800000000001976a9147f9b1a7fb68d60c536c2fd8aeaa53a8f3cc025a888ac00000000
{
  "txid": "7957a35fe64f80d234d76d83a2a8f1a0d8149a41d81de548f0a65a8a999f6f18",
  "hash": "7957a35fe64f80d234d76d83a2a8f1a0d8149a41d81de548f0a65a8a999f6f18",
  "version": 1,
  "size": 225,
  "vsize": 225,
  "weight": 900,
  "locktime": 0,
  "vin": [
    ... 
  ],
  "vout": [
    {
      "value": 0.10000000,
      "n": 0,
      "scriptPubKey": {
        "asm": "OP_DUP OP_HASH160 7f9b1a7fb68d60c536c2fd8aeaa53a8f3cc025a8 OP_EQUALVERIFY OP_CHECKSIG",
        "hex": "76a9147f9b1a7fb68d60c536c2fd8aeaa53a8f3cc025a888ac",
        "address": "1Cdid9KFAaatwczBwBttQcwXYCpvK8h7FK",
        "type": "pubkeyhash"
      }
    }
  ]
}
</code></pre></div></div>
</div>
  <div id="fb-root"></div>
<script>(function(d, s, id) {
  var js, fjs = d.getElementsByTagName(s)[0];
  if (d.getElementById(id)) return;
  js = d.createElement(s); js.id = id;
  js.src = "//connect.facebook.net/en_US/sdk.js#xfbml=1&version=v2.6&appId=100002479598118";
  fjs.parentNode.insertBefore(js, fjs);
}(document, 'script', 'facebook-jssdk'));</script>

</div>


  
    
      
        
          
            
            <div class="panel-body">
              <h4>Related Posts</h4>
              <ul>
            
                <li class="relatedPost">
                  <a href="http://localhost:4000/all/it%20%EC%9A%A9%EC%96%B4/2022/03/10/it-words-list.html">IT 용어 정리</a>
                  
                    (Categories: <a href="/category/all">all</a>, <a href="/category/IT 용어">IT 용어</a>)
                  
                </li>
          
          
        
      
          
      
          
      
    
        
          
      
          
      
          
      
    
  
    
      
        
          
            
                <li class="relatedPost">
                  <a href="http://localhost:4000/all/bitcoin/%EB%A7%88%EC%8A%A4%ED%84%B0%EB%A7%81%20%EB%B9%84%ED%8A%B8%EC%BD%94%EC%9D%B8/2022/03/07/bitcoinbook_ch6.html">마스터링 비트코인 ch6</a>
                  
                    (Categories: <a href="/category/all">all</a>, <a href="/category/bitcoin">bitcoin</a>, <a href="/category/마스터링 비트코인">마스터링 비트코인</a>)
                  
                </li>
          
          
        
      
          
      
          
      
    
        
          
      
          
      
          
      
    
        
          
      
          
      
          
      
    
  
    
      
        
          
            
                <li class="relatedPost">
                  <a href="http://localhost:4000/all/bitcoin/%EB%A7%88%EC%8A%A4%ED%84%B0%EB%A7%81%20%EB%B9%84%ED%8A%B8%EC%BD%94%EC%9D%B8/2022/02/28/bitcoinbook_ch5.html">마스터링 비트코인 ch5</a>
                  
                    (Categories: <a href="/category/all">all</a>, <a href="/category/bitcoin">bitcoin</a>, <a href="/category/마스터링 비트코인">마스터링 비트코인</a>)
                  
                </li>
          
          
        
      
          
      
          
      
    
        
          
      
          
      
          
      
    
        
          
      
          
      
          
      
    
  
    
      
        
          
            
                <li class="relatedPost">
                  <a href="http://localhost:4000/all/bitcoin/%EB%A7%88%EC%8A%A4%ED%84%B0%EB%A7%81%20%EB%B9%84%ED%8A%B8%EC%BD%94%EC%9D%B8/issue/2022/02/24/bitcoinbook_ch4_addr_code_issue.html">마스터링 비트코인 ch4 addr code error</a>
                  
                    (Categories: <a href="/category/all">all</a>, <a href="/category/bitcoin">bitcoin</a>, <a href="/category/마스터링 비트코인">마스터링 비트코인</a>, <a href="/category/issue">issue</a>)
                  
                </li>
          
          
        
      
          
      
          
      
    
        
          
      
          
      
          
      
    
        
          
      
          
      
          
      
    
        
          
      
          
      
          
      
    
  
    
      
        
          
            
                <li class="relatedPost">
                  <a href="http://localhost:4000/all/bitcoin/%EB%A7%88%EC%8A%A4%ED%84%B0%EB%A7%81%20%EB%B9%84%ED%8A%B8%EC%BD%94%EC%9D%B8/2022/02/24/bitcoinbook_ch4.html">마스터링 비트코인 ch4</a>
                  
                    (Categories: <a href="/category/all">all</a>, <a href="/category/bitcoin">bitcoin</a>, <a href="/category/마스터링 비트코인">마스터링 비트코인</a>)
                  
                </li>
          
          
        
      
          
      
          
      
    
        
          
      
          
      
          
      
    
        
          
      
          
      
          
      
    
  
    
      
        
          
      
          
      
          
      
    
        
          
      
          
      
          
      
    
        
          
      
          
      
          
      
    
  
    
      
        
          
            
                <li class="relatedPost">
                  <a href="http://localhost:4000/all/2022/02/21/welcome-to-taehoon_blog.html">wellcome to taehoon blog</a>
                  
                    (Categories: <a href="/category/all">all</a>)
                  
                </li>
          
          
        
      
          
      
          
      
    
  
  
  </ul>
</div>


<div class="PageNavigation">
  
    <a class="prev" href="/all/2022/02/21/welcome-to-taehoon_blog.html">&laquo; wellcome to taehoon blog</a>
  
  
    <a class="next" href="/all/bitcoin/%EB%A7%88%EC%8A%A4%ED%84%B0%EB%A7%81%20%EB%B9%84%ED%8A%B8%EC%BD%94%EC%9D%B8/2022/02/24/bitcoinbook_ch4.html">마스터링 비트코인 ch4 &raquo;</a>
  
</div>

<div class="disqus-comments">
  <div id="disqus_thread"></div>
  <script type="text/javascript">
    /* <![CDATA[ */
    var disqus_shortname = "hanscom95";
    var disqus_identifier = "http://localhost:4000_마스터링 비트코인 ch3";
    var disqus_title = "마스터링 비트코인 ch3";

    /* * * DON'T EDIT BELOW THIS LINE * * */
    (function() {
        var dsq = document.createElement('script'); dsq.type = 'text/javascript'; dsq.async = true;
        dsq.src = '//' + disqus_shortname + '.disqus.com/embed.js';
        (document.getElementsByTagName('head')[0] || document.getElementsByTagName('body')[0]).appendChild(dsq);
    })();
    /* ]]> */
  </script>
</div>

        <footer>
          &copy; TAEHOON
          
            - <a href="https://github.com/hanscom95">https://github.com/hanscom95</a> - Powered by Jekyll.
          
          <div class="btn-github" style="float:right;">
            <iframe src="https://ghbtns.com/github-btn.html?user=hanscom95&repo=hanscom95.github.io&type=star&count=true" frameborder="0" scrolling="0" width="100" height="20px"></iframe>
            <iframe src="https://ghbtns.com/github-btn.html?user=hanscom95&repo=hanscom95.github.io&type=fork&count=true" frameborder="0" scrolling="0" width="100" height="20px"></iframe>
          </div>
        </footer>
      </div>
      <!-- end /.col-sm-8 -->
    </div>
    <!-- end /.container -->

    <!-- Bootstrap core JavaScript -->
    <!-- Placed at the end of the document so the pages load faster -->
    <script src="//ajax.googleapis.com/ajax/libs/jquery/1.11.0/jquery.min.js"></script>
    <script src="//code.jquery.com/jquery-migrate-1.2.1.min.js"></script>
    <script src="/static/js/bootstrap.min.js"></script>
    <script src="/static/js/super-search.js"></script>
    <script src="/static/js/thickbox-compressed.js"></script>
    <script src="/static/js/projects.js"></script>
  </body>
</html>

